{
  "contractName": "DonationClinic",
  "abi": [
    {
      "constant": true,
      "inputs": [
        {
          "name": "",
          "type": "uint256"
        }
      ],
      "name": "bloodArray",
      "outputs": [
        {
          "name": "name",
          "type": "string"
        },
        {
          "name": "avail",
          "type": "uint256"
        }
      ],
      "payable": false,
      "stateMutability": "view",
      "type": "function"
    },
    {
      "constant": true,
      "inputs": [
        {
          "name": "",
          "type": "uint256"
        }
      ],
      "name": "donors",
      "outputs": [
        {
          "name": "blood",
          "type": "string"
        },
        {
          "name": "donorAddress",
          "type": "address"
        },
        {
          "name": "token",
          "type": "uint256"
        },
        {
          "name": "isBooked",
          "type": "bool"
        }
      ],
      "payable": false,
      "stateMutability": "view",
      "type": "function"
    },
    {
      "inputs": [],
      "payable": true,
      "stateMutability": "payable",
      "type": "constructor"
    },
    {
      "constant": false,
      "inputs": [
        {
          "name": "addr",
          "type": "address"
        },
        {
          "name": "_ml",
          "type": "uint256"
        }
      ],
      "name": "collect",
      "outputs": [],
      "payable": false,
      "stateMutability": "nonpayable",
      "type": "function"
    },
    {
      "constant": false,
      "inputs": [
        {
          "name": "blood",
          "type": "string"
        },
        {
          "name": "ml",
          "type": "uint256"
        }
      ],
      "name": "dispense",
      "outputs": [],
      "payable": true,
      "stateMutability": "payable",
      "type": "function"
    },
    {
      "constant": false,
      "inputs": [
        {
          "name": "blood",
          "type": "string"
        }
      ],
      "name": "join",
      "outputs": [],
      "payable": false,
      "stateMutability": "nonpayable",
      "type": "function"
    },
    {
      "constant": false,
      "inputs": [],
      "name": "book",
      "outputs": [],
      "payable": true,
      "stateMutability": "payable",
      "type": "function"
    },
    {
      "constant": true,
      "inputs": [],
      "name": "getDonorsLength",
      "outputs": [
        {
          "name": "",
          "type": "uint256"
        }
      ],
      "payable": false,
      "stateMutability": "view",
      "type": "function"
    },
    {
      "constant": true,
      "inputs": [
        {
          "name": "addr",
          "type": "address"
        }
      ],
      "name": "getTokens",
      "outputs": [
        {
          "name": "",
          "type": "int256"
        }
      ],
      "payable": false,
      "stateMutability": "view",
      "type": "function"
    }
  ],
  "bytecode": "0x6080604052610100604051908101604052806040805190810160405280600281526020017f412b00000000000000000000000000000000000000000000000000000000000081525081526020016040805190810160405280600281526020017f412d00000000000000000000000000000000000000000000000000000000000081525081526020016040805190810160405280600281526020017f422b00000000000000000000000000000000000000000000000000000000000081525081526020016040805190810160405280600281526020017f422d00000000000000000000000000000000000000000000000000000000000081525081526020016040805190810160405280600381526020017f41422b000000000000000000000000000000000000000000000000000000000081525081526020016040805190810160405280600381526020017f41422d000000000000000000000000000000000000000000000000000000000081525081526020016040805190810160405280600281526020017f302b00000000000000000000000000000000000000000000000000000000000081525081526020016040805190810160405280600281526020017f302d0000000000000000000000000000000000000000000000000000000000008152508152506012906008620001f992919062000286565b5060008090505b60088110156200027f576012816008811015156200021a57fe5b016000826008811015156200022b57fe5b60020201600001908054600181600116156101000203166002900462000253929190620002e0565b5060646000826008811015156200026657fe5b6002020160010181905550808060010191505062000200565b506200049a565b8260088101928215620002cd579160200282015b82811115620002cc578251829080519060200190620002bb9291906200036e565b50916020019190600101906200029a565b5b509050620002dc9190620003f5565b5090565b828054600181600116156101000203166002900490600052602060002090601f016020900481019282601f106200031b57805485556200035b565b828001600101855582156200035b57600052602060002091601f016020900482015b828111156200035a5782548255916001019190600101906200033d565b5b5090506200036a919062000426565b5090565b828054600181600116156101000203166002900490600052602060002090601f016020900481019282601f10620003b157805160ff1916838001178555620003e2565b82800160010185558215620003e2579182015b82811115620003e1578251825591602001919060010190620003c4565b5b509050620003f1919062000426565b5090565b6200042391905b808211156200041f57600081816200041591906200044e565b50600101620003fc565b5090565b90565b6200044b91905b80821115620004475760008160009055506001016200042d565b5090565b90565b50805460018160011615610100020316600290046000825580601f1062000476575062000497565b601f01602090049060005260206000209081019062000496919062000426565b5b50565b61154180620004aa6000396000f30060806040526004361061008e576000357c0100000000000000000000000000000000000000000000000000000000900463ffffffff16806305a8da721461009357806321ab61af1461009d578063450efe211461014a5780634abfa163146101a15780636a786b071461028c5780636b8357ac146102f5578063de9621b514610342578063f99374e51461036d575b600080fd5b61009b6103d3565b005b3480156100a957600080fd5b506100c86004803603810190808035906020019092919050505061065a565b6040518080602001838152602001828103825284818151815260200191508051906020019080838360005b8381101561010e5780820151818401526020810190506100f3565b50505050905090810190601f16801561013b5780820380516001836020036101000a031916815260200191505b50935050505060405180910390f35b34801561015657600080fd5b5061018b600480360381019080803573ffffffffffffffffffffffffffffffffffffffff16906020019092919050505061071b565b6040518082815260200191505060405180910390f35b3480156101ad57600080fd5b506101cc60048036038101908080359060200190929190505050610785565b60405180806020018573ffffffffffffffffffffffffffffffffffffffff1673ffffffffffffffffffffffffffffffffffffffff16815260200184815260200183151515158152602001828103825286818151815260200191508051906020019080838360005b8381101561024e578082015181840152602081019050610233565b50505050905090810190601f16801561027b5780820380516001836020036101000a031916815260200191505b509550505050505060405180910390f35b34801561029857600080fd5b506102f3600480360381019080803590602001908201803590602001908080601f0160208091040260200160405190810160405280939291908181526020018383808284378201915050505050509192919290505050610889565b005b34801561030157600080fd5b50610340600480360381019080803573ffffffffffffffffffffffffffffffffffffffff16906020019092919080359060200190929190505050610ef8565b005b34801561034e57600080fd5b506103576110de565b6040518082815260200191505060405180910390f35b6103d1600480360381019080803590602001908201803590602001908080601f0160208091040260200160405190810160405280939291908181526020018383808284378201915050505050509192919290803590602001909291905050506110eb565b005b60006103de33611158565b90506103e8811015156103f057600080fd5b601160408051908101604052806000815260200160108481548110151561041357fe5b906000526020600020906004020160806040519081016040529081600082018054600181600116156101000203166002900480601f0160208091040260200160405190810160405280929190818152602001828054600181600116156101000203166002900480156104c65780601f1061049b576101008083540402835291602001916104c6565b820191906000526020600020905b8154815290600101906020018083116104a957829003601f168201915b505050505081526020016001820160009054906101000a900473ffffffffffffffffffffffffffffffffffffffff1673ffffffffffffffffffffffffffffffffffffffff1673ffffffffffffffffffffffffffffffffffffffff168152602001600282015481526020016003820160009054906101000a900460ff161515151581525050815250908060018154018082558091505090600182039060005260206000209060050201600090919290919091506000820151816000015560208201518160010160008201518160000190805190602001906105a7929190611470565b5060208201518160010160006101000a81548173ffffffffffffffffffffffffffffffffffffffff021916908373ffffffffffffffffffffffffffffffffffffffff1602179055506040820151816002015560608201518160030160006101000a81548160ff0219169083151502179055505050505050600160108281548110151561062f57fe5b906000526020600020906004020160030160006101000a81548160ff02191690831515021790555050565b60008160088110151561066957fe5b60020201600091509050806000018054600181600116156101000203166002900480601f01602080910402602001604051908101604052809291908181526020018280546001816001161561010002031660029004801561070b5780601f106106e05761010080835404028352916020019161070b565b820191906000526020600020905b8154815290600101906020018083116106ee57829003601f168201915b5050505050908060010154905082565b60008061072783611158565b90506103e881111561075b577fffffffffffffffffffffffffffffffffffffffffffffffffffffffffffffffff915061077f565b60108181548110151561076a57fe5b90600052602060002090600402016002015491505b50919050565b60108181548110151561079457fe5b9060005260206000209060040201600091509050806000018054600181600116156101000203166002900480601f0160208091040260200160405190810160405280929190818152602001828054600181600116156101000203166002900480156108405780601f1061081557610100808354040283529160200191610840565b820191906000526020600020905b81548152906001019060200180831161082357829003601f168201915b5050505050908060010160009054906101000a900473ffffffffffffffffffffffffffffffffffffffff16908060020154908060030160009054906101000a900460ff16905084565b600081606081905060405180807f412b0000000000000000000000000000000000000000000000000000000000008152506002019050604051809103902060001916816040518082805190602001908083835b60208310151561090157805182526020820191506020810190506020830392506108dc565b6001836020036101000a03801982511681845116808217855250505050505090500191505060405180910390206000191614806109dc575060405180807f41422b00000000000000000000000000000000000000000000000000000000008152506003019050604051809103902060001916816040518082805190602001908083835b6020831015156109a95780518252602082019150602081019050602083039250610984565b6001836020036101000a038019825116818451168082178552505050505050905001915050604051809103902060001916145b80610a85575060405180807f422b0000000000000000000000000000000000000000000000000000000000008152506002019050604051809103902060001916816040518082805190602001908083835b602083101515610a525780518252602082019150602081019050602083039250610a2d565b6001836020036101000a038019825116818451168082178552505050505050905001915050604051809103902060001916145b80610b2e575060405180807f302b0000000000000000000000000000000000000000000000000000000000008152506002019050604051809103902060001916816040518082805190602001908083835b602083101515610afb5780518252602082019150602081019050602083039250610ad6565b6001836020036101000a038019825116818451168082178552505050505050905001915050604051809103902060001916145b80610bd7575060405180807f412d0000000000000000000000000000000000000000000000000000000000008152506002019050604051809103902060001916816040518082805190602001908083835b602083101515610ba45780518252602082019150602081019050602083039250610b7f565b6001836020036101000a038019825116818451168082178552505050505050905001915050604051809103902060001916145b80610c80575060405180807f41422d00000000000000000000000000000000000000000000000000000000008152506003019050604051809103902060001916816040518082805190602001908083835b602083101515610c4d5780518252602082019150602081019050602083039250610c28565b6001836020036101000a038019825116818451168082178552505050505050905001915050604051809103902060001916145b80610d29575060405180807f422d0000000000000000000000000000000000000000000000000000000000008152506002019050604051809103902060001916816040518082805190602001908083835b602083101515610cf65780518252602082019150602081019050602083039250610cd1565b6001836020036101000a038019825116818451168082178552505050505050905001915050604051809103902060001916145b80610dd2575060405180807f302d0000000000000000000000000000000000000000000000000000000000008152506002019050604051809103902060001916816040518082805190602001908083835b602083101515610d9f5780518252602082019150602081019050602083039250610d7a565b6001836020036101000a038019825116818451168082178552505050505050905001915050604051809103902060001916145b1515610ddd57600080fd5b610de633611158565b92506103e883111515610df857600080fd5b60106080604051908101604052808681526020013373ffffffffffffffffffffffffffffffffffffffff1681526020016000815260200160001515815250908060018154018082558091505090600182039060005260206000209060040201600090919290919091506000820151816000019080519060200190610e7d929190611470565b5060208201518160010160006101000a81548173ffffffffffffffffffffffffffffffffffffffff021916908373ffffffffffffffffffffffffffffffffffffffff1602179055506040820151816002015560608201518160030160006101000a81548160ff02191690831515021790555050505050505050565b6000806000610f0685611158565b92506103e883101515610f1857600080fd5b610f2185611202565b915060011515601084815481101515610f3657fe5b906000526020600020906004020160030160009054906101000a900460ff161515141515610f6357600080fd5b611024601084815481101515610f7557fe5b90600052602060002090600402016000018054600181600116156101000203166002900480601f01602080910402602001604051908101604052809291908181526020018280546001816001161561010002031660029004801561101a5780601f10610fef5761010080835404028352916020019161101a565b820191906000526020600020905b815481529060010190602001808311610ffd57829003601f168201915b50505050506112af565b90508360008260088110151561103657fe5b6002020160010160008282540192505081905550600160108481548110151561105b57fe5b906000526020600020906004020160020160008282540192505081905550600060108481548110151561108a57fe5b906000526020600020906004020160030160006101000a81548160ff021916908315150217905550426011838154811015156110c257fe5b9060005260206000209060050201600001819055505050505050565b6000601080549050905090565b6000828260006110fa836112af565b90508160008260088110151561110c57fe5b60020201600101541015151561112157600080fd5b61112a866112af565b93508460008560088110151561113c57fe5b6002020160010160008282540392505081905550505050505050565b600080600090505b6010805490508110156111f65760108181548110151561117c57fe5b906000526020600020906004020160010160009054906101000a900473ffffffffffffffffffffffffffffffffffffffff1673ffffffffffffffffffffffffffffffffffffffff168373ffffffffffffffffffffffffffffffffffffffff1614156111e9578091506111fc565b8080600101915050611160565b6103e991505b50919050565b600080600090505b6011805490508110156112a35760118181548110151561122657fe5b906000526020600020906005020160010160010160009054906101000a900473ffffffffffffffffffffffffffffffffffffffff1673ffffffffffffffffffffffffffffffffffffffff168373ffffffffffffffffffffffffffffffffffffffff161415611296578091506112a9565b808060010191505061120a565b6103e991505b50919050565b6000606060006060849250600091505b6008821015611462576000826008811015156112d757fe5b600202016000018054600181600116156101000203166002900480601f0160208091040260200160405190810160405280929190818152602001828054600181600116156101000203166002900480156113725780601f1061134757610100808354040283529160200191611372565b820191906000526020600020905b81548152906001019060200180831161135557829003601f168201915b50505050509050826040518082805190602001908083835b6020831015156113af578051825260208201915060208101905060208303925061138a565b6001836020036101000a038019825116818451168082178552505050505050905001915050604051809103902060001916816040518082805190602001908083835b60208310151561141657805182526020820191506020810190506020830392506113f1565b6001836020036101000a038019825116818451168082178552505050505050905001915050604051809103902060001916141561145557819350611468565b81806001019250506112bf565b6103e893505b505050919050565b828054600181600116156101000203166002900490600052602060002090601f016020900481019282601f106114b157805160ff19168380011785556114df565b828001600101855582156114df579182015b828111156114de5782518255916020019190600101906114c3565b5b5090506114ec91906114f0565b5090565b61151291905b8082111561150e5760008160009055506001016114f6565b5090565b905600a165627a7a7230582073094783cd348cd65537277d3261591809b71348796582e4a91fc103db7fe8a00029",
  "source": "pragma solidity >=0.4.22 <0.6.0;\n\ncontract DonationClinic {\n    \n    struct Donor{\n        string blood;\n        address donorAddress;\n        uint token;\n        bool isBooked;\n    }\n    \n    struct Blood{\n         string name;\n         uint avail;\n    }\n\n    struct Reservation {\n        uint256 time;\n        Donor giver;\n    }\n\n    Blood [8] public bloodArray;\n    Donor [] public donors;\n    Reservation []  reservations;\n    string [8] bloodTypes = [\"A+\", \"A-\", \"B+\", \"B-\", \"AB+\", \"AB-\", \"0+\", \"0-\"];\n    \n    constructor () payable public {\n        for (uint i =0; i < bloodTypes.length; i++ ){\n            bloodArray[i].name = bloodTypes[i];\n            bloodArray [i].avail = 100;\n        }\n    }\n    \n    function collect(address addr, uint _ml) public{\n        uint index = findDonor (addr);\n        require (index < 1000);\n        uint reservationIndex = findReservation(addr);\n        require (donors[index].isBooked==true);\n        uint bloodIndex = getIndex(donors[index].blood);\n        bloodArray[bloodIndex].avail += _ml;\n        donors[index].token += 1;\n        donors[index].isBooked = false;\n        reservations[reservationIndex].time = now;\n    }\n    \n    function dispense (string memory blood, uint ml) public payable noUnderZero (blood, ml){\n        uint bloodInd = getIndex (blood);\n        bloodArray[bloodInd].avail -=ml;\n    }\n    \n    \n    function join (string memory blood) public realBlood(blood){\n        uint i = findDonor(msg.sender);\n        require (i > 1000);\n        donors.push(Donor(blood,msg.sender,0,false));\n    }\n    \n    function book () payable public {\n        uint donorIndex = findDonor(msg.sender);\n        require (donorIndex < 1000);\n        reservations.push(Reservation(0, donors[donorIndex]));\n        donors[donorIndex].isBooked = true;\n    }\n\n    function getDonorsLength() view public returns(uint){\n       return donors.length;\n    }\n\n    function getTokens (address addr) view public returns (int){\n        uint donorIndex = findDonor (addr);\n        if (donorIndex > 1000) return -1;\n        return int (donors[donorIndex].token);\n    }\n\n    modifier noUnderZero (string memory blood, uint amount){\n        uint ind = getIndex(blood);\n        require (bloodArray[ind].avail >= amount); _;\n    }\n    \n    modifier realBlood (string memory bloodType){ //because it's not allowed to have enum as key of a map\n        bytes memory blood = bytes(bloodType);\n        require (keccak256(blood) == keccak256('A+') || keccak256(blood) == keccak256(\"AB+\") ||\n        keccak256(blood) == keccak256(\"B+\") || keccak256(blood) == keccak256(\"0+\") ||\n        keccak256(blood) == keccak256(\"A-\") ||keccak256(blood) == keccak256(\"AB-\") ||\n        keccak256(blood) == keccak256(\"B-\") ||keccak256(blood) == keccak256(\"0-\")); \n        _;\n    }\n\n\n    function findDonor (address _name) view private returns(uint){\n        for (uint i=0; i < donors.length; i++){\n            if (_name == donors[i].donorAddress){\n                return i;\n            }\n        }\n        return 1001 ;\n    }\n    \n    function findReservation (address _address) view private returns(uint){\n        for (uint i=0; i < reservations.length; i++){\n            if (_address == reservations[i].giver.donorAddress){\n                return i;\n            }\n        }\n        return 1001 ;\n    }\n    \n    function getIndex (string memory blood) private view returns(uint){\n        bytes memory b = bytes (blood);\n        for (uint i=0; i <8; i++){\n            bytes memory temp = bytes (bloodArray[i].name);\n            if (keccak256(temp)== keccak256(b)){\n                return i;\n            }\n        }  \n        return 1000;\n    }\n}\n",
  "sourcePath": "C:\\users\\lucaù\\documents\\donationclinic\\contracts\\DonationClinic.sol",
  "compiler": {
    "name": "solc",
    "version": "0.4.24+commit.e67f0147.Emscripten.clang"
  },
  "schemaVersion": "2.0.1",
  "updatedAt": "2019-01-15T10:22:59.247Z"
}